{
  "_format": "hh-sol-artifact-1",
  "contractName": "msNFT",
  "sourceName": "contracts/MySepoliaNFT.sol",
  "abi": [
    {
      "inputs": [],
      "stateMutability": "nonpayable",
      "type": "constructor"
    },
    {
      "inputs": [
        {
          "internalType": "address",
          "name": "sender",
          "type": "address"
        },
        {
          "internalType": "uint256",
          "name": "tokenId",
          "type": "uint256"
        },
        {
          "internalType": "address",
          "name": "owner",
          "type": "address"
        }
      ],
      "name": "ERC721IncorrectOwner",
      "type": "error"
    },
    {
      "inputs": [
        {
          "internalType": "address",
          "name": "operator",
          "type": "address"
        },
        {
          "internalType": "uint256",
          "name": "tokenId",
          "type": "uint256"
        }
      ],
      "name": "ERC721InsufficientApproval",
      "type": "error"
    },
    {
      "inputs": [
        {
          "internalType": "address",
          "name": "approver",
          "type": "address"
        }
      ],
      "name": "ERC721InvalidApprover",
      "type": "error"
    },
    {
      "inputs": [
        {
          "internalType": "address",
          "name": "operator",
          "type": "address"
        }
      ],
      "name": "ERC721InvalidOperator",
      "type": "error"
    },
    {
      "inputs": [
        {
          "internalType": "address",
          "name": "owner",
          "type": "address"
        }
      ],
      "name": "ERC721InvalidOwner",
      "type": "error"
    },
    {
      "inputs": [
        {
          "internalType": "address",
          "name": "receiver",
          "type": "address"
        }
      ],
      "name": "ERC721InvalidReceiver",
      "type": "error"
    },
    {
      "inputs": [
        {
          "internalType": "address",
          "name": "sender",
          "type": "address"
        }
      ],
      "name": "ERC721InvalidSender",
      "type": "error"
    },
    {
      "inputs": [
        {
          "internalType": "uint256",
          "name": "tokenId",
          "type": "uint256"
        }
      ],
      "name": "ERC721NonexistentToken",
      "type": "error"
    },
    {
      "anonymous": false,
      "inputs": [
        {
          "indexed": true,
          "internalType": "address",
          "name": "owner",
          "type": "address"
        },
        {
          "indexed": true,
          "internalType": "address",
          "name": "approved",
          "type": "address"
        },
        {
          "indexed": true,
          "internalType": "uint256",
          "name": "tokenId",
          "type": "uint256"
        }
      ],
      "name": "Approval",
      "type": "event"
    },
    {
      "anonymous": false,
      "inputs": [
        {
          "indexed": true,
          "internalType": "address",
          "name": "owner",
          "type": "address"
        },
        {
          "indexed": true,
          "internalType": "address",
          "name": "operator",
          "type": "address"
        },
        {
          "indexed": false,
          "internalType": "bool",
          "name": "approved",
          "type": "bool"
        }
      ],
      "name": "ApprovalForAll",
      "type": "event"
    },
    {
      "anonymous": false,
      "inputs": [
        {
          "indexed": false,
          "internalType": "uint256",
          "name": "_fromTokenId",
          "type": "uint256"
        },
        {
          "indexed": false,
          "internalType": "uint256",
          "name": "_toTokenId",
          "type": "uint256"
        }
      ],
      "name": "BatchMetadataUpdate",
      "type": "event"
    },
    {
      "anonymous": false,
      "inputs": [
        {
          "indexed": false,
          "internalType": "uint256",
          "name": "_tokenId",
          "type": "uint256"
        }
      ],
      "name": "MetadataUpdate",
      "type": "event"
    },
    {
      "anonymous": false,
      "inputs": [
        {
          "indexed": true,
          "internalType": "address",
          "name": "from",
          "type": "address"
        },
        {
          "indexed": true,
          "internalType": "address",
          "name": "to",
          "type": "address"
        },
        {
          "indexed": true,
          "internalType": "uint256",
          "name": "tokenId",
          "type": "uint256"
        }
      ],
      "name": "Transfer",
      "type": "event"
    },
    {
      "inputs": [
        {
          "internalType": "address",
          "name": "to",
          "type": "address"
        },
        {
          "internalType": "uint256",
          "name": "tokenId",
          "type": "uint256"
        }
      ],
      "name": "approve",
      "outputs": [],
      "stateMutability": "nonpayable",
      "type": "function"
    },
    {
      "inputs": [
        {
          "internalType": "address",
          "name": "owner",
          "type": "address"
        }
      ],
      "name": "balanceOf",
      "outputs": [
        {
          "internalType": "uint256",
          "name": "",
          "type": "uint256"
        }
      ],
      "stateMutability": "view",
      "type": "function"
    },
    {
      "inputs": [
        {
          "internalType": "uint256",
          "name": "tokenId",
          "type": "uint256"
        }
      ],
      "name": "getApproved",
      "outputs": [
        {
          "internalType": "address",
          "name": "",
          "type": "address"
        }
      ],
      "stateMutability": "view",
      "type": "function"
    },
    {
      "inputs": [
        {
          "internalType": "address",
          "name": "owner",
          "type": "address"
        },
        {
          "internalType": "address",
          "name": "operator",
          "type": "address"
        }
      ],
      "name": "isApprovedForAll",
      "outputs": [
        {
          "internalType": "bool",
          "name": "",
          "type": "bool"
        }
      ],
      "stateMutability": "view",
      "type": "function"
    },
    {
      "inputs": [
        {
          "internalType": "address",
          "name": "recipient",
          "type": "address"
        },
        {
          "internalType": "string",
          "name": "zodiacSign",
          "type": "string"
        }
      ],
      "name": "mintNFT",
      "outputs": [
        {
          "internalType": "uint256",
          "name": "",
          "type": "uint256"
        }
      ],
      "stateMutability": "nonpayable",
      "type": "function"
    },
    {
      "inputs": [],
      "name": "name",
      "outputs": [
        {
          "internalType": "string",
          "name": "",
          "type": "string"
        }
      ],
      "stateMutability": "view",
      "type": "function"
    },
    {
      "inputs": [
        {
          "internalType": "uint256",
          "name": "tokenId",
          "type": "uint256"
        }
      ],
      "name": "ownerOf",
      "outputs": [
        {
          "internalType": "address",
          "name": "",
          "type": "address"
        }
      ],
      "stateMutability": "view",
      "type": "function"
    },
    {
      "inputs": [
        {
          "internalType": "address",
          "name": "from",
          "type": "address"
        },
        {
          "internalType": "address",
          "name": "to",
          "type": "address"
        },
        {
          "internalType": "uint256",
          "name": "tokenId",
          "type": "uint256"
        }
      ],
      "name": "safeTransferFrom",
      "outputs": [],
      "stateMutability": "nonpayable",
      "type": "function"
    },
    {
      "inputs": [
        {
          "internalType": "address",
          "name": "from",
          "type": "address"
        },
        {
          "internalType": "address",
          "name": "to",
          "type": "address"
        },
        {
          "internalType": "uint256",
          "name": "tokenId",
          "type": "uint256"
        },
        {
          "internalType": "bytes",
          "name": "data",
          "type": "bytes"
        }
      ],
      "name": "safeTransferFrom",
      "outputs": [],
      "stateMutability": "nonpayable",
      "type": "function"
    },
    {
      "inputs": [
        {
          "internalType": "address",
          "name": "operator",
          "type": "address"
        },
        {
          "internalType": "bool",
          "name": "approved",
          "type": "bool"
        }
      ],
      "name": "setApprovalForAll",
      "outputs": [],
      "stateMutability": "nonpayable",
      "type": "function"
    },
    {
      "inputs": [
        {
          "internalType": "bytes4",
          "name": "interfaceId",
          "type": "bytes4"
        }
      ],
      "name": "supportsInterface",
      "outputs": [
        {
          "internalType": "bool",
          "name": "",
          "type": "bool"
        }
      ],
      "stateMutability": "view",
      "type": "function"
    },
    {
      "inputs": [],
      "name": "symbol",
      "outputs": [
        {
          "internalType": "string",
          "name": "",
          "type": "string"
        }
      ],
      "stateMutability": "view",
      "type": "function"
    },
    {
      "inputs": [
        {
          "internalType": "uint256",
          "name": "tokenId",
          "type": "uint256"
        }
      ],
      "name": "tokenURI",
      "outputs": [
        {
          "internalType": "string",
          "name": "",
          "type": "string"
        }
      ],
      "stateMutability": "view",
      "type": "function"
    },
    {
      "inputs": [
        {
          "internalType": "address",
          "name": "from",
          "type": "address"
        },
        {
          "internalType": "address",
          "name": "to",
          "type": "address"
        },
        {
          "internalType": "uint256",
          "name": "tokenId",
          "type": "uint256"
        }
      ],
      "name": "transferFrom",
      "outputs": [],
      "stateMutability": "nonpayable",
      "type": "function"
    }
  ],
  "bytecode": "0x6080604052604051806101600160405280610131815260200162002e5f61013191396008908162000031919062000352565b503480156200003f57600080fd5b506040518060400160405280600981526020017f4d795365706f6c696100000000000000000000000000000000000000000000008152506040518060400160405280600381526020017f4d535000000000000000000000000000000000000000000000000000000000008152508160009081620000bd919062000352565b508060019081620000cf919062000352565b50505062000439565b600081519050919050565b7f4e487b7100000000000000000000000000000000000000000000000000000000600052604160045260246000fd5b7f4e487b7100000000000000000000000000000000000000000000000000000000600052602260045260246000fd5b600060028204905060018216806200015a57607f821691505b60208210810362000170576200016f62000112565b5b50919050565b60008190508160005260206000209050919050565b60006020601f8301049050919050565b600082821b905092915050565b600060088302620001da7fffffffffffffffffffffffffffffffffffffffffffffffffffffffffffffffff826200019b565b620001e686836200019b565b95508019841693508086168417925050509392505050565b6000819050919050565b6000819050919050565b6000620002336200022d6200022784620001fe565b62000208565b620001fe565b9050919050565b6000819050919050565b6200024f8362000212565b620002676200025e826200023a565b848454620001a8565b825550505050565b600090565b6200027e6200026f565b6200028b81848462000244565b505050565b5b81811015620002b357620002a760008262000274565b60018101905062000291565b5050565b601f8211156200030257620002cc8162000176565b620002d7846200018b565b81016020851015620002e7578190505b620002ff620002f6856200018b565b83018262000290565b50505b505050565b600082821c905092915050565b6000620003276000198460080262000307565b1980831691505092915050565b600062000342838362000314565b9150826002028217905092915050565b6200035d82620000d8565b67ffffffffffffffff811115620003795762000378620000e3565b5b62000385825462000141565b62000392828285620002b7565b600060209050601f831160018114620003ca5760008415620003b5578287015190505b620003c1858262000334565b86555062000431565b601f198416620003da8662000176565b60005b828110156200040457848901518255600182019150602085019450602081019050620003dd565b8683101562000424578489015162000420601f89168262000314565b8355505b6001600288020188555050505b505050505050565b612a1680620004496000396000f3fe608060405234801561001057600080fd5b50600436106100ea5760003560e01c806370a082311161008c578063b88d4fde11610066578063b88d4fde1461025b578063c87b56dd14610277578063e985e9c5146102a7578063eacabe14146102d7576100ea565b806370a08231146101f157806395d89b4114610221578063a22cb4651461023f576100ea565b8063095ea7b3116100c8578063095ea7b31461016d57806323b872dd1461018957806342842e0e146101a55780636352211e146101c1576100ea565b806301ffc9a7146100ef57806306fdde031461011f578063081812fc1461013d575b600080fd5b61010960048036038101906101049190611a3e565b610307565b6040516101169190611a86565b60405180910390f35b610127610368565b6040516101349190611b31565b60405180910390f35b61015760048036038101906101529190611b89565b6103fa565b6040516101649190611bf7565b60405180910390f35b61018760048036038101906101829190611c3e565b610416565b005b6101a3600480360381019061019e9190611c7e565b61042c565b005b6101bf60048036038101906101ba9190611c7e565b61052e565b005b6101db60048036038101906101d69190611b89565b61054e565b6040516101e89190611bf7565b60405180910390f35b61020b60048036038101906102069190611cd1565b610560565b6040516102189190611d0d565b60405180910390f35b61022961061a565b6040516102369190611b31565b60405180910390f35b61025960048036038101906102549190611d54565b6106ac565b005b61027560048036038101906102709190611ec9565b6106c2565b005b610291600480360381019061028c9190611b89565b6106df565b60405161029e9190611b31565b60405180910390f35b6102c160048036038101906102bc9190611f4c565b6107f2565b6040516102ce9190611a86565b60405180910390f35b6102f160048036038101906102ec919061202d565b610886565b6040516102fe9190611d0d565b60405180910390f35b6000634906490660e01b7bffffffffffffffffffffffffffffffffffffffffffffffffffffffff1916827bffffffffffffffffffffffffffffffffffffffffffffffffffffffff1916148061036157506103608261094d565b5b9050919050565b606060008054610377906120b8565b80601f01602080910402602001604051908101604052809291908181526020018280546103a3906120b8565b80156103f05780601f106103c5576101008083540402835291602001916103f0565b820191906000526020600020905b8154815290600101906020018083116103d357829003601f168201915b5050505050905090565b600061040582610a2f565b5061040f82610ab7565b9050919050565b6104288282610423610af4565b610afc565b5050565b600073ffffffffffffffffffffffffffffffffffffffff168273ffffffffffffffffffffffffffffffffffffffff160361049e5760006040517f64a0ae920000000000000000000000000000000000000000000000000000000081526004016104959190611bf7565b60405180910390fd5b60006104b283836104ad610af4565b610b0e565b90508373ffffffffffffffffffffffffffffffffffffffff168173ffffffffffffffffffffffffffffffffffffffff1614610528578382826040517f64283d7b00000000000000000000000000000000000000000000000000000000815260040161051f939291906120e9565b60405180910390fd5b50505050565b610549838383604051806020016040528060008152506106c2565b505050565b600061055982610a2f565b9050919050565b60008073ffffffffffffffffffffffffffffffffffffffff168273ffffffffffffffffffffffffffffffffffffffff16036105d35760006040517f89c62b640000000000000000000000000000000000000000000000000000000081526004016105ca9190611bf7565b60405180910390fd5b600360008373ffffffffffffffffffffffffffffffffffffffff1673ffffffffffffffffffffffffffffffffffffffff168152602001908152602001600020549050919050565b606060018054610629906120b8565b80601f0160208091040260200160405190810160405280929190818152602001828054610655906120b8565b80156106a25780601f10610677576101008083540402835291602001916106a2565b820191906000526020600020905b81548152906001019060200180831161068557829003601f168201915b5050505050905090565b6106be6106b7610af4565b8383610d28565b5050565b6106cd84848461042c565b6106d984848484610e97565b50505050565b60606106ea82610a2f565b50600060066000848152602001908152602001600020805461070b906120b8565b80601f0160208091040260200160405190810160405280929190818152602001828054610737906120b8565b80156107845780601f1061075957610100808354040283529160200191610784565b820191906000526020600020905b81548152906001019060200180831161076757829003601f168201915b50505050509050600061079561104e565b905060008151036107aa5781925050506107ed565b6000825111156107df5780826040516020016107c792919061215c565b604051602081830303815290604052925050506107ed565b6107e884611065565b925050505b919050565b6000600560008473ffffffffffffffffffffffffffffffffffffffff1673ffffffffffffffffffffffffffffffffffffffff16815260200190815260200160002060008373ffffffffffffffffffffffffffffffffffffffff1673ffffffffffffffffffffffffffffffffffffffff16815260200190815260200160002060009054906101000a900460ff16905092915050565b600060016007600082825461089b91906121af565b9250508190555060006008836040516020016108b89291906122c7565b604051602081830303815290604052905060006108ff84856108d9856110ce565b6040516020016108eb939291906124be565b6040516020818303038152906040526110ce565b90506000816040516020016109149190612567565b6040516020818303038152906040529050600060075490506109368782611231565b610940818361124f565b8094505050505092915050565b60007f80ac58cd000000000000000000000000000000000000000000000000000000007bffffffffffffffffffffffffffffffffffffffffffffffffffffffff1916827bffffffffffffffffffffffffffffffffffffffffffffffffffffffff19161480610a1857507f5b5e139f000000000000000000000000000000000000000000000000000000007bffffffffffffffffffffffffffffffffffffffffffffffffffffffff1916827bffffffffffffffffffffffffffffffffffffffffffffffffffffffff1916145b80610a285750610a27826112ab565b5b9050919050565b600080610a3b83611315565b9050600073ffffffffffffffffffffffffffffffffffffffff168173ffffffffffffffffffffffffffffffffffffffff1603610aae57826040517f7e273289000000000000000000000000000000000000000000000000000000008152600401610aa59190611d0d565b60405180910390fd5b80915050919050565b60006004600083815260200190815260200160002060009054906101000a900473ffffffffffffffffffffffffffffffffffffffff169050919050565b600033905090565b610b098383836001611352565b505050565b600080610b1a84611315565b9050600073ffffffffffffffffffffffffffffffffffffffff168373ffffffffffffffffffffffffffffffffffffffff1614610b5c57610b5b818486611517565b5b600073ffffffffffffffffffffffffffffffffffffffff168173ffffffffffffffffffffffffffffffffffffffff1614610bed57610b9e600085600080611352565b6001600360008373ffffffffffffffffffffffffffffffffffffffff1673ffffffffffffffffffffffffffffffffffffffff168152602001908152602001600020600082825403925050819055505b600073ffffffffffffffffffffffffffffffffffffffff168573ffffffffffffffffffffffffffffffffffffffff1614610c70576001600360008773ffffffffffffffffffffffffffffffffffffffff1673ffffffffffffffffffffffffffffffffffffffff168152602001908152602001600020600082825401925050819055505b846002600086815260200190815260200160002060006101000a81548173ffffffffffffffffffffffffffffffffffffffff021916908373ffffffffffffffffffffffffffffffffffffffff160217905550838573ffffffffffffffffffffffffffffffffffffffff168273ffffffffffffffffffffffffffffffffffffffff167fddf252ad1be2c89b69c2b068fc378daa952ba7f163c4a11628f55a4df523b3ef60405160405180910390a4809150509392505050565b600073ffffffffffffffffffffffffffffffffffffffff168273ffffffffffffffffffffffffffffffffffffffff1603610d9957816040517f5b08ba18000000000000000000000000000000000000000000000000000000008152600401610d909190611bf7565b60405180910390fd5b80600560008573ffffffffffffffffffffffffffffffffffffffff1673ffffffffffffffffffffffffffffffffffffffff16815260200190815260200160002060008473ffffffffffffffffffffffffffffffffffffffff1673ffffffffffffffffffffffffffffffffffffffff16815260200190815260200160002060006101000a81548160ff0219169083151502179055508173ffffffffffffffffffffffffffffffffffffffff168373ffffffffffffffffffffffffffffffffffffffff167f17307eab39ab6107e8899845ad3d59bd9653f200f220920489ca2b5937696c3183604051610e8a9190611a86565b60405180910390a3505050565b60008373ffffffffffffffffffffffffffffffffffffffff163b1115611048578273ffffffffffffffffffffffffffffffffffffffff1663150b7a02610edb610af4565b8685856040518563ffffffff1660e01b8152600401610efd94939291906125de565b6020604051808303816000875af1925050508015610f3957506040513d601f19601f82011682018060405250810190610f36919061263f565b60015b610fbd573d8060008114610f69576040519150601f19603f3d011682016040523d82523d6000602084013e610f6e565b606091505b506000815103610fb557836040517f64a0ae92000000000000000000000000000000000000000000000000000000008152600401610fac9190611bf7565b60405180910390fd5b805181602001fd5b63150b7a0260e01b7bffffffffffffffffffffffffffffffffffffffffffffffffffffffff1916817bffffffffffffffffffffffffffffffffffffffffffffffffffffffff19161461104657836040517f64a0ae9200000000000000000000000000000000000000000000000000000000815260040161103d9190611bf7565b60405180910390fd5b505b50505050565b606060405180602001604052806000815250905090565b606061107082610a2f565b50600061107b61104e565b9050600081511161109b57604051806020016040528060008152506110c6565b806110a5846115db565b6040516020016110b692919061215c565b6040516020818303038152906040525b915050919050565b606060008251036110f05760405180602001604052806000815250905061122c565b60006040518060600160405280604081526020016129a1604091399050600060036002855161111f91906121af565b611129919061269b565b600461113591906126cc565b67ffffffffffffffff81111561114e5761114d611d9e565b5b6040519080825280601f01601f1916602001820160405280156111805781602001600182028036833780820191505090505b509050600182016020820185865187015b808210156111ec576003820191508151603f8160121c168501518453600184019350603f81600c1c168501518453600184019350603f8160061c168501518453600184019350603f8116850151845360018401935050611191565b5050600386510660018114611208576002811461121b57611223565b603d6001830353603d6002830353611223565b603d60018303535b50505080925050505b919050565b61124b8282604051806020016040528060008152506116a9565b5050565b8060066000848152602001908152602001600020908161126f91906128a5565b507ff8e1a15aba9398e019f0b49df1a4fde98ee17ae345cb5f6b5e2c27f5033e8ce78260405161129f9190611d0d565b60405180910390a15050565b60007f01ffc9a7000000000000000000000000000000000000000000000000000000007bffffffffffffffffffffffffffffffffffffffffffffffffffffffff1916827bffffffffffffffffffffffffffffffffffffffffffffffffffffffff1916149050919050565b60006002600083815260200190815260200160002060009054906101000a900473ffffffffffffffffffffffffffffffffffffffff169050919050565b808061138b5750600073ffffffffffffffffffffffffffffffffffffffff168273ffffffffffffffffffffffffffffffffffffffff1614155b156114bf57600061139b84610a2f565b9050600073ffffffffffffffffffffffffffffffffffffffff168373ffffffffffffffffffffffffffffffffffffffff161415801561140657508273ffffffffffffffffffffffffffffffffffffffff168173ffffffffffffffffffffffffffffffffffffffff1614155b8015611419575061141781846107f2565b155b1561145b57826040517fa9fbf51f0000000000000000000000000000000000000000000000000000000081526004016114529190611bf7565b60405180910390fd5b81156114bd57838573ffffffffffffffffffffffffffffffffffffffff168273ffffffffffffffffffffffffffffffffffffffff167f8c5be1e5ebec7d5bd14f71427d1e84f3dd0314c0f7b2291e5b200ac8c7c3b92560405160405180910390a45b505b836004600085815260200190815260200160002060006101000a81548173ffffffffffffffffffffffffffffffffffffffff021916908373ffffffffffffffffffffffffffffffffffffffff16021790555050505050565b6115228383836116c5565b6115d657600073ffffffffffffffffffffffffffffffffffffffff168373ffffffffffffffffffffffffffffffffffffffff160361159757806040517f7e27328900000000000000000000000000000000000000000000000000000000815260040161158e9190611d0d565b60405180910390fd5b81816040517f177e802f0000000000000000000000000000000000000000000000000000000081526004016115cd929190612977565b60405180910390fd5b505050565b6060600060016115ea84611786565b01905060008167ffffffffffffffff81111561160957611608611d9e565b5b6040519080825280601f01601f19166020018201604052801561163b5781602001600182028036833780820191505090505b509050600082602001820190505b60011561169e578080600190039150507f3031323334353637383961626364656600000000000000000000000000000000600a86061a8153600a85816116925761169161266c565b5b04945060008503611649575b819350505050919050565b6116b383836118d9565b6116c06000848484610e97565b505050565b60008073ffffffffffffffffffffffffffffffffffffffff168373ffffffffffffffffffffffffffffffffffffffff161415801561177d57508273ffffffffffffffffffffffffffffffffffffffff168473ffffffffffffffffffffffffffffffffffffffff16148061173e575061173d84846107f2565b5b8061177c57508273ffffffffffffffffffffffffffffffffffffffff1661176483610ab7565b73ffffffffffffffffffffffffffffffffffffffff16145b5b90509392505050565b600080600090507a184f03e93ff9f4daa797ed6e38ed64bf6a1f01000000000000000083106117e4577a184f03e93ff9f4daa797ed6e38ed64bf6a1f01000000000000000083816117da576117d961266c565b5b0492506040810190505b6d04ee2d6d415b85acef81000000008310611821576d04ee2d6d415b85acef810000000083816118175761181661266c565b5b0492506020810190505b662386f26fc10000831061185057662386f26fc1000083816118465761184561266c565b5b0492506010810190505b6305f5e1008310611879576305f5e100838161186f5761186e61266c565b5b0492506008810190505b612710831061189e5761271083816118945761189361266c565b5b0492506004810190505b606483106118c157606483816118b7576118b661266c565b5b0492506002810190505b600a83106118d0576001810190505b80915050919050565b600073ffffffffffffffffffffffffffffffffffffffff168273ffffffffffffffffffffffffffffffffffffffff160361194b5760006040517f64a0ae920000000000000000000000000000000000000000000000000000000081526004016119429190611bf7565b60405180910390fd5b600061195983836000610b0e565b9050600073ffffffffffffffffffffffffffffffffffffffff168173ffffffffffffffffffffffffffffffffffffffff16146119cd5760006040517f73c6ac6e0000000000000000000000000000000000000000000000000000000081526004016119c49190611bf7565b60405180910390fd5b505050565b6000604051905090565b600080fd5b600080fd5b60007fffffffff0000000000000000000000000000000000000000000000000000000082169050919050565b611a1b816119e6565b8114611a2657600080fd5b50565b600081359050611a3881611a12565b92915050565b600060208284031215611a5457611a536119dc565b5b6000611a6284828501611a29565b91505092915050565b60008115159050919050565b611a8081611a6b565b82525050565b6000602082019050611a9b6000830184611a77565b92915050565b600081519050919050565b600082825260208201905092915050565b60005b83811015611adb578082015181840152602081019050611ac0565b60008484015250505050565b6000601f19601f8301169050919050565b6000611b0382611aa1565b611b0d8185611aac565b9350611b1d818560208601611abd565b611b2681611ae7565b840191505092915050565b60006020820190508181036000830152611b4b8184611af8565b905092915050565b6000819050919050565b611b6681611b53565b8114611b7157600080fd5b50565b600081359050611b8381611b5d565b92915050565b600060208284031215611b9f57611b9e6119dc565b5b6000611bad84828501611b74565b91505092915050565b600073ffffffffffffffffffffffffffffffffffffffff82169050919050565b6000611be182611bb6565b9050919050565b611bf181611bd6565b82525050565b6000602082019050611c0c6000830184611be8565b92915050565b611c1b81611bd6565b8114611c2657600080fd5b50565b600081359050611c3881611c12565b92915050565b60008060408385031215611c5557611c546119dc565b5b6000611c6385828601611c29565b9250506020611c7485828601611b74565b9150509250929050565b600080600060608486031215611c9757611c966119dc565b5b6000611ca586828701611c29565b9350506020611cb686828701611c29565b9250506040611cc786828701611b74565b9150509250925092565b600060208284031215611ce757611ce66119dc565b5b6000611cf584828501611c29565b91505092915050565b611d0781611b53565b82525050565b6000602082019050611d226000830184611cfe565b92915050565b611d3181611a6b565b8114611d3c57600080fd5b50565b600081359050611d4e81611d28565b92915050565b60008060408385031215611d6b57611d6a6119dc565b5b6000611d7985828601611c29565b9250506020611d8a85828601611d3f565b9150509250929050565b600080fd5b600080fd5b7f4e487b7100000000000000000000000000000000000000000000000000000000600052604160045260246000fd5b611dd682611ae7565b810181811067ffffffffffffffff82111715611df557611df4611d9e565b5b80604052505050565b6000611e086119d2565b9050611e148282611dcd565b919050565b600067ffffffffffffffff821115611e3457611e33611d9e565b5b611e3d82611ae7565b9050602081019050919050565b82818337600083830152505050565b6000611e6c611e6784611e19565b611dfe565b905082815260208101848484011115611e8857611e87611d99565b5b611e93848285611e4a565b509392505050565b600082601f830112611eb057611eaf611d94565b5b8135611ec0848260208601611e59565b91505092915050565b60008060008060808587031215611ee357611ee26119dc565b5b6000611ef187828801611c29565b9450506020611f0287828801611c29565b9350506040611f1387828801611b74565b925050606085013567ffffffffffffffff811115611f3457611f336119e1565b5b611f4087828801611e9b565b91505092959194509250565b60008060408385031215611f6357611f626119dc565b5b6000611f7185828601611c29565b9250506020611f8285828601611c29565b9150509250929050565b600067ffffffffffffffff821115611fa757611fa6611d9e565b5b611fb082611ae7565b9050602081019050919050565b6000611fd0611fcb84611f8c565b611dfe565b905082815260208101848484011115611fec57611feb611d99565b5b611ff7848285611e4a565b509392505050565b600082601f83011261201457612013611d94565b5b8135612024848260208601611fbd565b91505092915050565b60008060408385031215612044576120436119dc565b5b600061205285828601611c29565b925050602083013567ffffffffffffffff811115612073576120726119e1565b5b61207f85828601611fff565b9150509250929050565b7f4e487b7100000000000000000000000000000000000000000000000000000000600052602260045260246000fd5b600060028204905060018216806120d057607f821691505b6020821081036120e3576120e2612089565b5b50919050565b60006060820190506120fe6000830186611be8565b61210b6020830185611cfe565b6121186040830184611be8565b949350505050565b600081905092915050565b600061213682611aa1565b6121408185612120565b9350612150818560208601611abd565b80840191505092915050565b6000612168828561212b565b9150612174828461212b565b91508190509392505050565b7f4e487b7100000000000000000000000000000000000000000000000000000000600052601160045260246000fd5b60006121ba82611b53565b91506121c583611b53565b92508282019050808211156121dd576121dc612180565b5b92915050565b60008190508160005260206000209050919050565b60008154612205816120b8565b61220f8186612120565b9450600182166000811461222a576001811461223f57612272565b60ff1983168652811515820286019350612272565b612248856121e3565b60005b8381101561226a5781548189015260018201915060208101905061224b565b838801955050505b50505092915050565b7f3c2f746578743e3c2f7376673e00000000000000000000000000000000000000600082015250565b60006122b1600d83612120565b91506122bc8261227b565b600d82019050919050565b60006122d382856121f8565b91506122df828461212b565b91506122ea826122a4565b91508190509392505050565b7f7b226e616d65223a202200000000000000000000000000000000000000000000600082015250565b600061232c600a83612120565b9150612337826122f6565b600a82019050919050565b7f222c20226465736372697074696f6e223a20224f6e2d636861696e205a6f646960008201527f6163205369676e204e465473222c202261747472696275746573223a205b7b2260208201527f74726169745f74797065223a20225a6f64696163205369676e222c202276616c60408201527f7565223a20220000000000000000000000000000000000000000000000000000606082015250565b60006123ea606683612120565b91506123f582612342565b606682019050919050565b7f227d5d2c2022696d616765223a2022646174613a696d6167652f7376672b786d60008201527f6c3b6261736536342c0000000000000000000000000000000000000000000000602082015250565b600061245c602983612120565b915061246782612400565b602982019050919050565b7f227d000000000000000000000000000000000000000000000000000000000000600082015250565b60006124a8600283612120565b91506124b382612472565b600282019050919050565b60006124c98261231f565b91506124d5828661212b565b91506124e0826123dd565b91506124ec828561212b565b91506124f78261244f565b9150612503828461212b565b915061250e8261249b565b9150819050949350505050565b7f646174613a6170706c69636174696f6e2f6a736f6e3b6261736536342c000000600082015250565b6000612551601d83612120565b915061255c8261251b565b601d82019050919050565b600061257282612544565b915061257e828461212b565b915081905092915050565b600081519050919050565b600082825260208201905092915050565b60006125b082612589565b6125ba8185612594565b93506125ca818560208601611abd565b6125d381611ae7565b840191505092915050565b60006080820190506125f36000830187611be8565b6126006020830186611be8565b61260d6040830185611cfe565b818103606083015261261f81846125a5565b905095945050505050565b60008151905061263981611a12565b92915050565b600060208284031215612655576126546119dc565b5b60006126638482850161262a565b91505092915050565b7f4e487b7100000000000000000000000000000000000000000000000000000000600052601260045260246000fd5b60006126a682611b53565b91506126b183611b53565b9250826126c1576126c061266c565b5b828204905092915050565b60006126d782611b53565b91506126e283611b53565b92508282026126f081611b53565b9150828204841483151761270757612706612180565b5b5092915050565b60006020601f8301049050919050565b600082821b905092915050565b60006008830261275b7fffffffffffffffffffffffffffffffffffffffffffffffffffffffffffffffff8261271e565b612765868361271e565b95508019841693508086168417925050509392505050565b6000819050919050565b60006127a261279d61279884611b53565b61277d565b611b53565b9050919050565b6000819050919050565b6127bc83612787565b6127d06127c8826127a9565b84845461272b565b825550505050565b600090565b6127e56127d8565b6127f08184846127b3565b505050565b5b81811015612814576128096000826127dd565b6001810190506127f6565b5050565b601f8211156128595761282a816121e3565b6128338461270e565b81016020851015612842578190505b61285661284e8561270e565b8301826127f5565b50505b505050565b600082821c905092915050565b600061287c6000198460080261285e565b1980831691505092915050565b6000612895838361286b565b9150826002028217905092915050565b6128ae82611aa1565b67ffffffffffffffff8111156128c7576128c6611d9e565b5b6128d182546120b8565b6128dc828285612818565b600060209050601f83116001811461290f57600084156128fd578287015190505b6129078582612889565b86555061296f565b601f19841661291d866121e3565b60005b8281101561294557848901518255600182019150602085019450602081019050612920565b86831015612962578489015161295e601f89168261286b565b8355505b6001600288020188555050505b505050505050565b600060408201905061298c6000830185611be8565b6129996020830184611cfe565b939250505056fe4142434445464748494a4b4c4d4e4f505152535455565758595a6162636465666768696a6b6c6d6e6f707172737475767778797a303132333435363738392b2fa2646970667358221220b8c56ae072a14bb11ddcffcc7ef9e2c9488c89936efe43c2a0042edc3f57f1a064736f6c634300081400333c73766720786d6c6e733d273c687474703a2f2f7777772e77332e6f72672f323030302f7376673e27207072657365727665417370656374526174696f3d27784d696e594d696e206d656574272076696577426f783d273020302033353020333530273e3c7374796c653e2e62617365207b2066696c6c3a2077686974653b20666f6e742d66616d696c793a2073657269663b20666f6e742d73697a653a20323470783b207d3c2f7374796c653e3c726563742077696474683d273130302527206865696768743d2731303025272066696c6c3d27626c61636b27202f3e3c7465787420783d273530252720793d273530252720636c6173733d27626173652720646f6d696e616e742d626173656c696e653d276d6964646c652720746578742d616e63686f723d276d6964646c65273e",
  "linkReferences": {},
  "deployedLinkReferences": {}
}